:020000040000fa
:080000000001040000000000f3
:020000040000fa
:04000800d202000020
:020000040000fa
:04000c00d20200001c
:020000040000fa
:04001000d202000018
:020000040000fa
:04001400d202000014
:020000040000fa
:04001800d202000010
:020000040000fa
:04001c00d20200000c
:020000040000fa
:04002000d202000008
:020000040000fa
:04002400d202000004
:020000040000fa
:04002800d202000000
:020000040000fa
:04002c00d2020000fc
:020000040000fa
:04003000d2020000f8
:020000040000fa
:0400340018020000ae
:020000040000fa
:04003800d2020000f0
:020000040000fa
:04003c00d2020000ec
:020000040000fa
:04004000d2020000e8
:020000040000fa
:040044005002000066
:020000040000fa
:04004800d2020000e0
:020000040000fa
:04004c00d2020000dc
:020000040000fa
:04005000d2020000d8
:020000040000fa
:04005400d2020000d4
:020000040000fa
:04005800d2020000d0
:020000040000fa
:04005c00d2020000cc
:020000040000fa
:04006000d2020000c8
:020000040000fa
:04006400d2020000c4
:020000040000fa
:04006800d2020000c0
:020000040000fa
:04006c00d2020000bc
:020000040000fa
:04007000d2020000b8
:020000040000fa
:04007400d2020000b4
:020000040000fa
:04007800d2020000b0
:020000040000fa
:04007c00d2020000ac
:020000040000fa
:04008000d2020000a8
:020000040000fa
:04008400d2020000a4
:020000040000fa
:04008800d2020000a0
:020000040000fa
:04008c00d20200009c
:020000040000fa
:04009000d202000098
:020000040000fa
:04009400d202000094
:020000040000fa
:04009800d202000090
:020000040000fa
:04009c00d20200008c
:020000040000fa
:0400a000b4020000a6
:020000040000fa
:0400a400ca0200008c
:020000040000fa
:0400a800d202000080
:020000040000fa
:0400ac00d20200007c
:020000040000fa
:0400b000d202000078
:020000040000fa
:0400b400d202000074
:020000040000fa
:0400b800d202000070
:020000040000fa
:0400bc00d20200006c
:020000040000fa
:0400c000d202000068
:020000040000fa
:0400c400d202000064
:020000040000fa
:0400c800d202000060
:020000040000fa
:0400cc00d20200005c
:020000040000fa
:0400d000d202000058
:020000040000fa
:0400d400d202000054
:020000040000fa
:0400d800d202000050
:020000040000fa
:0400dc00d20200004c
:020000040000fa
:0400e000d202000048
:020000040000fa
:0400e400d202000044
:020000040000fa
:0400e800d202000040
:020000040000fa
:0400ec00d20200003c
:020000040000fa
:0400f000d202000038
:020000040000fa
:0400f400d202000034
:020000040000fa
:0400f800d202000030
:020000040000fa
:0400fc00d20200002c
:020000040000fa
:04010000d202000027
:020000040000fa
:04010400d202000023
:020000040000fa
:04010800d20200001f
:020000040000fa
:04010c00d20200001b
:020000040000fa
:04011000d202000017
:020000040000fa
:04011400d202000013
:020000040000fa
:04011800d20200000f
:020000040000fa
:04011c00d20200000b
:020000040000fa
:04012000d202000007
:020000040000fa
:04012400d202000003
:020000040000fa
:04012800d2020000ff
:020000040000fa
:04012c00d2020000fb
:020000040000fa
:04013000d2020000f7
:020000040000fa
:04013400d2020000f3
:020000040000fa
:04013800d2020000ef
:020000040000fa
:04013c00d2020000eb
:020000040000fa
:04014000d2020000e7
:020000040000fa
:04014400d2020000e3
:020000040000fa
:04014800d2020000df
:020000040000fa
:04014c00d2020000db
:020000040000fa
:04015000d2020000d7
:020000040000fa
:04015400d2020000d3
:020000040000fa
:04015800d2020000cf
:020000040000fa
:04015c00d2020000cb
:020000040000fa
:04016000d2020000c7
:020000040000fa
:04016400d2020000c3
:020000040000fa
:04016800d2020000bf
:020000040000fa
:04016c00d2020000bb
:020000040000fa
:04017000d2020000b7
:020000040000fa
:04017400d2020000b3
:020000040000fa
:04017800d2020000af
:020000040000fa
:04017c00d2020000ab
:020000040000fa
:04018000d2020000a7
:020000040000fa
:04018400d2020000a3
:020000040000fa
:04018800d20200009f
:020000040000fa
:04018c00d20200009b
:020000040000fa
:04019000d202000097
:020000040000fa
:04019400d202000093
:020000040000fa
:04019800d20200008f
:020000040000fa
:04019c00d20200008b
:020000040000fa
:0401a000d202000087
:020000040000fa
:0401a400d202000083
:020000040000fa
:0401a800d20200007f
:020000040000fa
:0401ac00d20200007b
:020000040000fa
:0401b000d202000077
:020000040000fa
:0401b400d202000073
:020000040000fa
:0401b800d20200006f
:020000040000fa
:0401bc00d20200006b
:020000040000fa
:0401c000d202000067
:020000040000fa
:0401c400d202000063
:020000040000fa
:0401c800d20200005f
:020000040000fa
:0401cc00d20200005b
:020000040000fa
:0401d000d202000057
:020000040000fa
:0401d400d202000053
:020000040000fa
:0401d800d20200004f
:020000040000fa
:0401dc00d20200004b
:020000040000fa
:0401e000d202000047
:020000040000fa
:0401e400d202000043
:020000040000fa
:0401e800d20200003f
:020000040000fa
:0401ec00d20200003b
:020000040000fa
:0401f000d202000037
:020000040000fa
:0401f400d202000033
:020000040000fa
:0401f800d20200002f
:020000040000fa
:0401fc00d20200002b
:020000040000fa
:100200000fce21000e7f24000e01880000000000a8
:10021000000020000000e000020032000001200089
:100220002002880014000700e00007000000e00042
:1002300003003a0000d32400010020000200370030
:100240000000200001002000810f7000010032003a
:1002500014000700000020000000e000020032004f
:100260000000020000000000e2390200000000006f
:100270000040da000000fe004440a900a058200021
:100280000000e00003003200002020009001880000
:100290004440a800000006008a1f78008b1f7800e9
:1002a00000000600a1028800800478000000eb0036
:1002b0001f003700e284440054a0b4009905ba003e
:1002c000e284440054a0b4009906ba00e2844400d9
:1002d00054a0b4000006eb00476fde00fd07b2003b
:1002e000ae018800636ce10003003a00eaff0700fa
:1002f0000000eb000e003700606ce10008003a00df
:10030000004deb000a05e800020039003420ec0043
:100310000af0a0008b05e900f9ff3e000400370059
:100320006168e100010032000086eb000b0007006d
:1003300019c7ba001905ba000e04e00003003a001c
:100340000a00e000dbff3a0000000600fe07b200f2
:10035000ae0288008a047800f5ff37000cd0a300b5
:10036000e20f4d001c00390089027800354dba00bb
:100370000a05e800020039003420ec000af0a00071
:100380008b05e9000f003200254dba000a05e80090
:10039000020039003420ec000af0a0008b05e900cf
:1003a000080032000c00e0000600320015cdba0053
:1003b0000a05e800020039003420ec000af0a00031
:1003c0008b05e9008984e80054a0b4000b00e0002c
:1003d000e2ff3a00000006009902ba00055d7800cd
:1003e0008b05e900f7ff3200c82ade00055d7800c2
:1003f0008b05e900f3ff32000c00e000f1ff320052
:1004000019ddba00eeff3700de1a0400000000001c
:10041000aa3304000000000076340400000000004d
:100420008636040000000000ea38040000000000e6
:100430003600f800809fbe00829fbe00849fbe00f1
:10044000869fbe003200f8003400f8001000200043
:10045000a001880000202000900188000000fa0020
:100460008860a900870907000000e000030032004f
:10047000dc4c020000000000000000000080fa00d8
:100480003400f9003200f9004f03be004f02be00f5
:100490004f01be004f00be003600f90000400600cc
:1004a000809fbe000000fa0088e0a9001140800093
:1004b00020408000808f5000020031007ae6a800c2
:1004c000010037007ae6a900104080000000e80033
:1004d0001040880010408000e40f500001003600fa
:1004e0000228ef00004080000000e0001b003a00fe
:1004f000304080000000e80030408800314080003b
:1005000050092000808f5000140036000628ef00ac
:1005100050c8bf008000fb002040800000804000e9
:100520002040880020408000e40f50000500360085
:10053000500020002040880000c0eb0050e8b700c9
:1005400006003700204080000000e00003003a0071
:100550000428ef0010c0b30050e8b7000080fa0094
:100560004f00be0000400600801f78000000fa0027
:100570008bc0a900a01d8000004078005ce8b70097
:1005800010c0b3005de8b7000080fa004f007800ab
:10059000004006000000fa008be0a9000080fa008d
:1005a000004006000040da000000fe0000000500e8
:1005b0006022b800060220000000d0008180d20036
:1005c0000482d2008582d2000000a0000202520004
:1005d00083825a00030031000202420083824a00f3
:1005e0000000a1000603e900f3ff3a000000060046
:1005f000889fbe008a9fbe0030044200b0844a003b
:1006000030054b0090854b006000b1000898be009b
:100610000a90be000440e10005c8e10006d0e100f8
:1006200007d8e10002003100680040001008e8002f
:100630004f05be004f04be0000000600889fbe00ac
:100640008a9fbe003004be002005be00041854007e
:1006500005985c0006185d0007985d0011002000f9
:100660000440e10005c8e10006d0e10007d8e10040
:10067000010039008000eb00108810004f05be001b
:100680004f04be00000006001200fa00889fbe0062
:100690008a9fbe008c9fbe00e0b79f00f1b79f000d
:1006a00082bf9f0093bf9f000605be000404be00ea
:1006b0000000eb00d0b79f00c0b79f00b0b79f000d
:1006c000a0b79f0090b79f00000678005fb1970029
:1006d000cfb09700820141003fb097000200e000d8
:1006e00004003d00370007007e805700c0ff070070
:1006f00003003700330007007e805700cfff07005c
:10070000dfb697000d00e0000c0035006fb29700d7
:10071000ffb297000fbb97009fbb9700100020000f
:10072000010020006011b800000272008182720096
:1007300002037300838373001b0007000c06e800ac
:1007400001042000810f5600e0ff3a000d00e00098
:1007500004003d000802be000a03be007e80570070
:10076000a3ff07005fa897000000e00005003a0023
:100770001fb29700afb297003fb39700cfb3970077
:10078000090007006fb09700ffb097000fb99700fe
:100790009fb997004f06be004f05be004f04be0034
:1007a0000080fa00000006000100070000000600bb
:1007b000a4b79f00b5b79f00c6b79f00d7b79f00eb
:1007c000000006004f09de0082817100b3b79f0070
:1007d0004f01de008180400082807000a1b79f0041
:1007e0008fb097004f09de0000004000020070004b
:1007f00090b79f007fa897004f01de0081804000e6
:100800008280700081b79f000d0007004f3ade0024
:100810000000400004007000f0af9f0008000700d7
:100820000402420085824a0006034b0087834b0086
:10083000dfff07000802be000a03be00000006003a
:100840002fb29700bfb297004fb39700dfb3970066
:1008500000000600881f780018002000881f78001c
:1008600089ff07008f87e9004f0478000000060029
:10087000801feb0084ff07008f87e900000006005f
:10088000889fbe008a9fbe00e00f5000e08f580096
:10089000e00f5900e08f59000c003d006044b800a3
:1008a0006055b8000000540081805c0002015d00ca
:1008b00083815d00180020001500070008003d003e
:1008c000180007000004eb00050037000004eb00ef
:1008d0000f00070002003d00120007001800200072
:1008e000dcff07000800e000060032006022b800cc
:1008f0006033b8000000520081805a0002015b00a2
:1009000083815b004f05be004f04be00000006005f
:10091000e00f5200e08f5a00e00f5b00e08f5b00b9
:10092000000006006044b8006055b800040254009e
:1009300085825c0006035d0087835d000000060081
:10094000889fbe008a9fbe008c1f7800e00f500079
:10095000e08f5800e00f5900e08f59000d003d0076
:100960006044b8006055b8000000540081805c000d
:1009700002015d0083815d001c0020000820e10071
:1009800009a8e1000ab0e1000bb8e1000d003d004c
:10099000080037000006eb00e00f5200e08f5a001d
:1009a000e00f5b00e08f5b0006003d006044b80094
:1009b0006055b8000402540085825c0006035d00a7
:1009c00087835d00aaff07000c00e00006003200ec
:1009d0006022b8006033b8000000520081805a00e5
:1009e00002015b0083815b004f0678004f05be006b
:1009f0004f04be0000000600889fbe008a9fbe0014
:100a00008c1f78000006eb00e00f5000e08f5800cc
:100a1000e00f5900e08f590007003d006044b80026
:100a20006055b8000000540081805c0002015d0048
:100a300083815d001c002000e00f5200e08f5a000f
:100a4000e00f5b00e08f5b0007003d006044b800f2
:100a50006055b8000402540085825c0006035d0006
:100a600087835d000c00a2000c0007000c00e00072
:100a7000060032006022b8006033b8000000520067
:100a800081805a0002015b0083815b004f06780081
:100a90004f05be004f04be0000000600889fbe0048
:100aa0008a9fbe008c9fbe000404b8000506b800f3
:100ab0008904460060854e000606b8000a05460017
:100ac000e0854e000706b8008b054600040eb8000e
:100ad000890446000a854e00e0854d00050eb800e9
:100ae0000a0546008b854e00060eb8008b054600b1
:100af0000416b8000a0546008b854e000516b8009e
:100b00008b054600041eb8008b0546000800be0099
:100b10000a01be004f06be004f05be004f04be00d6
:100b200000000600010037000201e9000200e000b9
:100b30000500320030427800b1417800834f520006
:100b4000f9ff320001003700000005000480fb00bf
:100b50008381fb0003005000000006008001780044
:100b600002003700b15978000201e9000200e000fc
:100b7000fcff3a0000000600889fbe008a9fbe006e
:100b8000800478000200e0005b0032000140780041
:100b9000814c780082814400f1f99f00e20f5100fe
:100ba0005500360091449800a1449800e1f99f0057
:100bb000d1f99f00e60f51004f003600b144980074
:100bc000c1f99f00e80f51004b0036000905ea000b
:100bd000630565000a8444000a055100c1ff2f0027
:100be000010565000080fb008000eb001210200072
:100bf000131020005c000700008cbe000a014400b6
:100c000060b99f0071b99f00e80f55003a003600a7
:100c10002004980031049800400498005104980082
:100c200020b99f0031b99f0040b99f0051b99f0082
:100c3000f80f5500300036006004980071049800e9
:100c4000000c9800110c9800200c9800310c9800b2
:100c5000400c9800510c980020b19f0031b19f00ca
:100c600040b19f0051b19f0060b19f0071b19f00e2
:100c700000b99f0011b99f00640164007801410030
:100c800002044400020555006011b8000203be00d2
:100c90000002be000403be006022b8000000720023
:100ca000818072000201730083817300100037009d
:100cb000009cbe000294be004004980051049800bd
:100cc0006204980073049800000c9800110c9800be
:100cd000220c9800330c9800400c9800510c98009e
:100ce000620c9800730c98000a02b1000802b00070
:100cf000ff0f5500eeff3e00090078004f05be00d3
:100d00004f04be0000000600800078000400370099
:100d10003104e00002003a0000005100000006002b
:100d2000010178000108a300f9ff3a008101780071
:100d300031017800f4ef2f00020242000281ea0044
:100d4000020162000408280004016100f7ff32007c
:100d500083007800010178003104e000fdff3a00d3
:100d60000000510000000600020ab900001bb90093
:100d70000200b8008100420081004300000006002c
:020000040000fa
:100d80000a0d0000546900006d650000207200002b
:100d9000656d0000616900006e6900006e6700000b
:100da0003a200000000a00002d2d00002d2d00002b
:100db0002d2d00002d2d00002d2d00002d2d0000cb
:100dc0002d2d00002d2d00002d2d00002d2d0000bb
:100dd0002d2d0000466100006e63000079200000a8
:100de000546900006d650000722000005072000020
:100df0006f6a000065630000742d00002d2d000057
:100e00002d2d00002d2d00002d2d00002d2d00007a
:100e10002d2d00002d2d00002d2d00002d2d00006a
:100e20002d2d00002d2d00000a0d0000000a0000ed
:100e300041750000746800006f720000733a000092
:100e4000204a0000617a0000656200002c2000004a
:100e50004d61000079750000726100006e20000095
:100e6000616e000064200000416e000061730000ac
:100e700020280000477200006f75000070200000fd
:100e800031330000290a00000a0d00000054000060
:100e90006865000020430000757200007265000064
:100ea0006e7400002053000074610000746500003f
:100eb000206f0000662000007468000065200000bc
:100ec000465300004d200000697300003a200000e6
:100ed0005741000049540000494e0000472e0000d1
:100ee000204c0000454400003220000073680000e0
:100ef0006f7500006c640000206200006520000037
:100f0000707500006c730000696e0000670a0000d5
:100f1000005400006f2000006d6f00007665000037
:100f2000206600006f7200007761000072640000ac
:100f30002c200000706c00006561000073650000eb
:100f400020700000726500007373000020500000e4
:100f500042310000207400006f2000006265000034
:100f6000676900006e200000736500007474000063
:100f7000696e00006720000061200000636f0000c0
:100f8000756e0000746400006f7700006e20000032
:100f9000746900006d6500002e0a0000000a000060
:100fa0000d5b00005741000049540000494e00000d
:100fb000475d000020500000726500007373000060
:100fc0002050000042310000207400006f2000001b
:100fd00062650000676900006e2000007365000014
:100fe00074740000696e000067200000612000003a
:100ff000636f0000756e0000746400006f7700007e
:101000006e200000746900006d6500002e0a00006b
:101010000d0000000a0d00005b4400004542000086
:10102000554700005d2000005042000031200000c4
:101030006174000020720000657300006574000098
:101040003a200000312000002848000049470000f5
:10105000482900000a0d0000000a00000d5b000096
:101060004445000042550000475d0000205000004c
:101070004231000020610000742000007265000011
:1010800073650000743a0000203000002028000042
:101090004c4f0000572900000a0d0000000a000014
:1010a0000d5b00005741000049540000494e00000c
:1010b000475d000020500000423100002070000019
:1010c0007265000073730000206400006574000006
:1010d0006563000074650000642c0000206d000052
:1010e0006f760000696e000067200000746f0000da
:1010f00020540000494d0000455f0000454e0000af
:1011000054520000592e00000a0d0000000a000091
:101110000d5b0000544900004d45000020450000d3
:101120004e540000525900005d200000506c000039
:101130006561000073650000206500006e740000aa
:101140006572000020740000696d000065200000d9
:1011500061730000204d00004d530000532000003b
:10116000286500002e6700002e2c000020300000b3
:101170003133000030200000666f00007220000054
:10118000316d0000696e00002033000030730000f4
:10119000292c000020740000686500006e2000000b
:1011a000707200006573000073200000454e00005f
:1011b00054450000523a00000a0d00003e20000095
:1011c000000a00000d5b0000544900004d4500007e
:1011d000204500004e540000525900005d200000e0
:1011e000546900006d650000207300006574000004
:1011f0002e0a00000d0000005b540000494d000065
:1012000045200000454e000054520000595d00008a
:10121000204300006c690000636b00002050000058
:1012200042320000206100006e6400002050000087
:1012300042330000207400006f67000065740000f6
:101240006865000072200000746f000020730000c9
:1012500074610000727400002e0a00000d0000008e
:101260005b540000494d000045200000454e000041
:1012700054520000595d0000204c00006f6e0000c9
:10128000672000007072000065730000732000008a
:1012900050420000322b000050420000332000007a
:1012a000746f000020720000657300006574000018
:1012b000206100006e64000020720000652d0000b7
:1012c000656e000074650000722000007469000003
:1012d0006d6500002e0a00000d0000000a0d0000e0
:1012e0005b540000494d000045200000454e0000c1
:1012f00054520000595d0000204c00006f6e000049
:101300006720000070720000657300007320000009
:1013100050420000322b00005042000033200000f9
:10132000646500007465000063740000656400007b
:101330002e200000526500007365000074740000e8
:10134000696e000067200000746900006d65000090
:101350002e0a00000d0000000a0d00005b54000082
:10136000494d000045200000454e00005452000049
:10137000595d000020530000746100007274000089
:10138000696e000067200000636f0000756e00004a
:10139000746400006f7700006e2e00000a0d0000dc
:1013a000000a00000d5b0000434f0000554e000096
:1013b000544400004f5700004e5d000020430000e1
:1013c0006f7500006e740000646f0000776e00009f
:1013d00020730000746100007274000065640000f6
:1013e0002e0a00000d0000005b4300004f55000076
:1013f0004e540000444f0000574e00005d20000096
:10140000436c0000696300006b2000005042000044
:1014100033200000746f0000207000006175000030
:10142000736500002f72000065730000756d000089
:10143000652e0000204c00006f6e00006720000049
:1014400070720000657300007320000050420000bd
:1014500033200000746f000020610000626f000004
:10146000727400002e0a00000d0000005b430000b3
:101470004f5500004e540000444f0000574e0000ee
:101480005d200000547900007065000020270000f6
:1014900069270000207400006f200000746f0000b6
:1014a000676700006c65000020650000787400002c
:1014b00072610000206900006e6600006f2c000061
:1014c0002027000062270000207400006f20000029
:1014d000746f0000676700006c650000204c00001e
:1014e0004544000032200000626c0000696e00007c
:1014f0006b2f0000736f00006c690000642e000009
:101500000a0d0000000a00000d5b0000434f0000c0
:10151000554e0000544400004f5700004e5d00003f
:10152000204c00006f6e0000672000007072000009
:10153000657300007320000050420000332000005b
:101540006465000074650000637400006564000059
:101550002e200000416200006f72000074690000dc
:101560006e67000020740000696d00006572000065
:10157000207400006f200000303000003a3000007e
:10158000302e00000a0d0000000a00000d5b000074
:10159000434f0000554e0000544400004f570000d8
:1015a0004e5d000020500000617500007365000072
:1015b000642e00000a0d0000000a00000d5b000010
:1015c000434f0000554e0000544400004f570000a8
:1015d0004e5d00002052000065730000756d000034
:1015e000656400002e0a00000d0000000a0d0000d6
:1015f0005b4300004f5500004e540000444f000074
:10160000574e00005d2000004c45000044320000b1
:101610002073000065740000207400006f2000003b
:10162000424c0000494e00004b2000006d6f00004e
:10163000646500002e0a00000d0000000a0d000085
:101640005b4300004f5500004e540000444f000023
:10165000574e00005d2000004c4500004432000061
:101660002073000065740000207400006f200000eb
:10167000534f00004c490000442000006d6f0000f3
:10168000646500002e0a00000d0000000a0d000035
:10169000546900006d65000020720000656d000057
:1016a000616900006e6900006e670000202800007c
:1016b00065780000746500006e64000065640000d9
:1016c000293a000020000000207c0000204100009a
:1016d00044430000203d000020000000207c00006a
:1016e000204c0000454400003220000064750000da
:1016f0007479000054690000636b000073200000df
:101700003d200000002000007c2000004c4500002f
:1017100044320000206d00006f640000652000006e
:101720003d200000004200004c4900004e4b0000ec
:10173000005300004f4c000049440000000a000024
:101740000d5b0000444f00004e4500005d2000008e
:10175000436f0000756e0000746400006f77000036
:101760006e200000636f00006d7000006c6500006b
:101770007465000021200000546900006d650000c0
:10178000722000007265000061630000686500005f
:1017900064200000303000003a300000302e00009d
:1017a0000a0d000000570000616900007454000039
:1017b000617300006b000000546900006d6500005b
:1017c000456e0000747200007954000061730000df
:1017d0006b000000436f0000756e00007464000031
:1017e0006f7700006e540000617300006b00000012
:1017f000446f00006e65000054610000736b0000d0
:10180000000000001111000022220000333300000c
:1018100044440000555500006666000077770000dc
:101820008888000099990000aaaa0000bbbb0000ac
:10183000cccc0000dddd0000eeee0000cecd0000df
:10184000acab000003000000494400004c45000020
:1018500000a50000a5a50000a5a50000a5a5000005
:10186000a5a50000a5a50000a5a50000a5a5000050
:10187000a5a50000a5a50000a50000000a740000b1
:101880006f6f0000206c00006f6e0000670a0000a0
:041890000d00000047
:020000040000fa
:101894000e00fa00100798002107980032079800fc
:1018a400430798005407980065079800a002200099
:1018b400b71f0700000f78001e0078000000e0004a
:1018c40012003200a20220008000eb001e0078000b
:1018d400a8fc07003e00900000004000ac1f070079
:1018e400800078001e007800410898001e007800ef
:1018f400400890000000e00004003a001e00780058
:10190400dc1f07000000eb00000f78001e007800c9
:101914000000e000090032008003eb001e037800a1
:10192400ee0290005e029000ce0190003e01900015
:10193400ae0090001e0090001f0007001e007800fb
:101944000080fa00000006001000fa00200798004a
:1019540031079800420798005307980064079800dd
:1019640075079800fe0290006e029000de01900060
:101974004e019000be0090002e009000c4ff0700ae
:10198400100798001e0090000000e00005003200df
:101994001e0090006d00070010002000000f78006a
:1019a400020037000080eb00000f78001e00780072
:1019b4000080fa00000006001400fa0020079800d6
:1019c400310798004207980053079800640798006d
:1019d40075079800060f9800170f98004e009000a6
:1019e40000004000800078000e089000400890003d
:1019f40001017800510a20005efc07000e089000e7
:101a0400c0089000110798001e0090000000e80034
:101a14000000a100100798000e089000c008900074
:101a24004e0090000000e90000004000808040006b
:101a34000e089000710898003e0090000000e0003d
:101a4400180032000000eb00000f78000d00370092
:101a54003e0090001e004000904078000e08900068
:101a64001e0040007a004000014878003e009000cb
:101a74001e004000104078000004e0000500320021
:101a84001e0fe8001e007800e30f5000f0ff360040
:101a940001003700000000000e0890008040eb00b9
:101aa400515898006e009000e30f50000200360079
:101ab40030002000600798000e089000ee009000af
:101ac400310898000e089000ee0090000110980074
:101ad4000e0890000080e800b21e07000e08900077
:101ae4006c004000af1e07000e0890008e089000a6
:101af400410098006e009000e40010000e08900071
:101b0400610098000e0890008e089000110898005b
:101b14005e019000ae0090001e009000f11d0700d1
:101b2400800078000e089000010878007e00900084
:101b34000000e000030032007e0090008e08900058
:101b4400010878000080fa00000006000400fa0092
:101b5400100798005f1e0700604180000000e80045
:101b640060418800304180000000e00007003a0036
:101b74009e0090003141880060418000e10f5000d8
:101b84000d003a00970607000b00370090418000d3
:101b94000000e00008003a0030418000b0089000e6
:101ba4001e00900030089000808f500002003e001c
:101bb4009e00900031418800d04180000000e80080
:101bc400d04188001e009000b00890008041800041
:101bd400808f5000030036001e00900030089000f3
:101be400804188001e009000300890006a00b9000f
:101bf40080007800e0c52100008040009000900043
:101c0400010f78001e0090009e00780021009800cb
:101c14001e007800a00090001e0090003100980083
:101c24001e007800200090009e0090008180e80053
:101c3400110098001e0090008080e8001e007800cb
:101c4400210098001e009000300890006a00b9003e
:101c540080007800e0c52100808040001e009000d4
:101c6400510098001e009000300890006a00b900ee
:101c740080007800e0c52100008140001e00900033
:101c8400300890006a00b90080007800e0c52100a7
:101c940000804000100078000000e800000978008f
:101ca400191e0700904180000000e0000900320086
:101cb40030418000b00890001e0090003008900071
:101cc400808f500003003100dc4c02000000000053
:101cd400000000000080fa00000006000c00fa007a
:101ce40040079800510798000000eb00000f7800af
:101cf4007002070071418000110798004e009000a7
:101d0400900078005e00900000804000200798005a
:101d14004e009000900078001e009000808f5000cc
:101d24000c0036004e009000900078002e009000c9
:101d3400808f500012003600ae0090001e0090000c
:101d4400808f50000e00360010002000000f780035
:101d54000b0037004e009000900078002e00900099
:101d6400808f500004003e00ae0090001e009000e2
:101d7400808f50000200360010002000000f780011
:101d84004e009000ae009000010878001e0078001c
:101d94000000e00005003200ae0090001e0090003c
:101da400008050008000eb00540b0700470207003e
:101db400300798003e0090000000e00003003a0065
:101dc400dc4c020000000000000000001e0078004f
:101dd4000080fa00000006000400fa0010079800d2
:101de4000000eb00000f78001e0090000000e000ef
:101df400060032002f0207008000eb001e00900056
:101e04003e0b070031020700000f78001e00780027
:101e14000000e00003003a00dc4c02000000000077
:101e2400000000000080fa00000006000e00fa0026
:101e340050079800610798000000eb00000f78003d
:101e44006e009000e30f50000200360030002000c6
:101e5400600798009f1d07005e0090000000e000ee
:101e640002003a0030418000010037005e0090001b
:101e7400100798001e009000801090002107980021
:101e8400ae0090006e009000808f50007b00320006
:101e9400ee0090002e009000808f50000c00360061
:101ea400304180009e009000808f50000e00320070
:101eb40030418000b00890006e009000808f500088
:101ec4000900310010002000000f780006003700e0
:101ed400304180009e009000808f500002003a0044
:101ee40010002000000f78001e009000b008900041
:101ef400310798001e009000801090001e00900092
:101f040030089000808f5000050032001e009000c1
:101f1400b00890006e009000808f500003003100e4
:101f24001e009000ee009000310898001e00900002
:101f3400ee009000011098001e00900060009000d8
:101f44000000e000040035006e009000e400100082
:101f54001e009000610098001e0090005001900047
:101f64003e0090006a00b90080007800e0c52100be
:101f740000804000800f51003a003a001e0090009b
:101f84000080e800de1d07001e009000b0089000ed
:101f940080418000808f5000030036001e009000b6
:101fa40030089000804188001e00900030089000a6
:101fb4006a00b90080007800e0c52100008040007c
:101fc40090009000410798001e009000ce00900001
:101fd400210098004e009000a00090001e00900088
:101fe400310098004e009000200090009e00900068
:101ff4008180e800110098001e0090008080e800b5
:102004004e009000210098001e00900030089000bf
:102014006a00b90080007800e0c52100808040009b
:102024001e009000510098001e009000300890009f
:102034006a00b90080007800e0c5210000814000fa
:102044001e009000300890006a00b90080007800fb
:10205400e0c5210000804000100078000000e80086
:10206400000978001e0078000000e0000300320040
:10207400dc4c02000000000000000000221d0700ec
:102084000080fa00000006000800fa0030079800fb
:10209400101d07003e0090000000e00002003a001e
:1020a40030418000010037003e0090001007980086
:1020b4001e0090000080e800911d07001e009000a3
:1020c400200890000000e000030032001e00900091
:1020d4006c0040008a1d07001e0090000080e8008c
:1020e4008000780040ca2100351d07000000eb0085
:1020f400000f78000c0037009e0090008202200040
:102104001e00410061407800e14f500005003a0094
:102114001e0090001e0040008002b0008040eb00d2
:10212400014878001e0fe8001e0078000000e0005f
:10213400f1ff3400f41c0700904180000000e0002f
:1021440003003200e31c070045050700ee1c0700ee
:10215400304180009e009000808f500010003a00b3
:10216400904180000000e00004003200dc4c0200da
:1021740000000000000000000900370021e5800095
:102184002107980060418000ae009000808f5000cd
:1021940002003a002628ef0001003700040307007c
:1021a4000080fa00000006000800fa0030079800da
:1021b4000000eb00000f7800be009000210798009b
:1021c4002e009000d000900040ca2100808f500063
:1021d4001d003a002e009000a0089000a0c9210024
:1021e400808f5000180032002e00900020089000cc
:1021f4000000e00014003a0010002000000f7800f6
:102204000000eb00100798000c003700ae009000af
:102214001e0090008002b00061407800e14f500041
:1022240003003a000000eb00000f780006003700be
:102234001e0090000000e800100798001e009000a7
:102244000000e000f1ff34001e0078000080fa0076
:10225400000006000600fa0020079800ae00900077
:10226400010f7800304180009e007800808f50007c
:10227400490032001e0078000000e00046003200f1
:10228400941c07001e007800c7ff07000000e00050
:10229400400032001e80e800191d07001e0078006f
:1022a400b008900080418000808f50000300360009
:1022b4001e00780030089000804188001e007800dd
:1022c400300890006a00b90080007800e0c5210061
:1022d4000080400090009000110798001e007800d4
:1022e4009e009000210098001e009000a000900025
:1022f4001e007800310098001e009000200090001d
:102304009e80e800110098009e80e8001e00900066
:10231400210098001e007800300890006a00b9007f
:1023240080007800e0c52100808040001e00780015
:10233400510098001e007800300890006a00b9002f
:1023440080007800e0c52100008140001e00780074
:10235400300890006a00b90080007800e0c52100d0
:1023640000804000100078000000e80000097800b8
:1023740030418000b00890001e00780030089000c2
:10238400808f500003003100dc4c0200000000008c
:10239400000000005c1c07000080fa00000006003a
:1023a4000a00fa00400798000000eb00000f7800d4
:1023b400ce009000110798000000eb002007980061
:1023c4001e00900078ff07000000e0004d0032007e
:1023d400004280000000e00045003a001e0090002a
:1023e400b00890003041800030089000808f500089
:1023f4000400360010002000000f780010002000b8
:10240400b04188001e0090000080e800bc1c07005a
:102414001e009000b008900080418000808f500022
:10242400030036001e0090003008900080418800b0
:102434001e009000300890006a00b9008000780007
:10244400e0c5210000804000900090003107980012
:102454001e009000be009000210098003e009000f5
:10246400a00090001e009000310098003e009000f3
:10247400200090009e0090008180e80011009800e8
:102484001e0090008080e8003e009000210098002b
:102494001e009000300890006a00b90080007800a7
:1024a400e0c52100808040001e009000510098008b
:1024b4001e009000300890006a00b9008000780087
:1024c400e0c52100008140001e009000300890000b
:1024d4006a00b90080007800e0c521000080400057
:1024e400100078000000e8000009780005003700bb
:1024f4001e0090006c00400080007800a0c92100fc
:102504002f1c07001e0078000080fa00000006005f
:102514000c00fa0010002000000f78006000b800e2
:1025240040079800510798000000eb00300798001e
:102534000000eb00200798001100370041c228007a
:102544002e00900000804000904078006801470011
:102554002e0090000000410001487800e800470088
:102564002e00900000804000104078000004e0003d
:10257400070032002e0090000000e80020079800b9
:102584002e009000e20f5000ecff360001003700ef
:1025940000000000e80047002e009000008040008a
:1025a4008040eb00014878000000eb001007980021
:1025b40016003700e0ad2100300798001e0090009f
:1025c4000000400080007800e0832000808040000c
:1025d40068004700810278000002eb008001eb00f4
:1025e40032072000800078003e009000d6fc0700ef
:1025f400000f78001e007800e10f500007003a0039
:102604001e0090000000e800100798001e009000d3
:102614000000e000e7ff3400010037000000000084
:102624001e0078000080fa00000006000200fa0094
:10263400b7ff0700000f78001e007800e10f50007c
:102644000d003a0011028000f0f12f0000806000bc
:102654000050a000100288000000000000000000ec
:102664000080eb00e04188001000200090418800c9
:102674002e28ef00681b0700106184000080fa0018
:10268400000006000000fa0011028000f0f12f00a3
:10269400008060000050a0001002880000000000cc
:1026a400000000003228ef00731b07000080fa00ce
:1026b400000006000000fa00004280000000e8006c
:1026c400004288000080fa00000006000e00fa00b4
:1026d4000000eb00000f78000000eb0010079800ea
:1026e4007c1b07000000eb003007980000428000cc
:1026f4000000e90000428800004280000000e00081
:10270400ae003a00604180000000e000ab003200ff
:102714008100370000e5800030009000000f780051
:102724001e007800a0089000410798001e00780061
:10273400700090009e0078008108900021009800ad
:102744001e007800000890009e007800f1009000c0
:10275400110098004e009000900090001e01780037
:102764006c004100808f500004003a001e00780085
:10277400800890004e009000110098001e00780020
:102784008000eb00210898004e00900010007800b3
:102794008000e9004e009000010878001e007800d7
:1027a400d0009000510798001e007800200090008f
:1027b4009e007800b1009000210098001e0078006f
:1027c400300090009e007800a10090001100980055
:1027d4005e009000900090001e80e800808f500002
:1027e40004003a001e007800b00090005e009000e3
:1027f400110098001e0078008000eb005100980042
:102804005e009000100078008000e9005e009000f7
:10281400010878001e007800b00890008041800014
:10282400808f5000030036001e00780030089000ae
:10283400804188001e007800300890006a00b900ca
:1028440080007800e0c52100008040001001900065
:10285400620798001e007800ee00900021009800a6
:102864006e009000a00090001e00780031009800d7
:102874006e009000200090009e80e80011009800f7
:102884009e80e8006e009000210098001e007800f1
:10289400300890006a00b90080007800e0c521008b
:1028a400808040001e007800510098001e007800cf
:1028b400300890006a00b90080007800e0c521006b
:1028c400008140001e007800300890006a00b900c2
:1028d40080007800e0c521000080400010007800ee
:1028e4000000e800000978001e007800b00890009d
:1028f4003041800030089000808f50000600360080
:102904003e00900080004000608320000080400072
:102914001100200001087800d0e480000000e000ed
:102924007cff3a001e0078000000e0000100320045
:102934004b030700a2418000220798002e0090005c
:102944000000e000100032004d0007000000e0002d
:10295400060032003e0090008000400060832000aa
:102964000080400011002000010878002e00900033
:102974000000e900200798002e0090000000e0000d
:10298400f1ff3a003428ef003e0090008000400040
:102994006083200000804000100078000000e00008
:1029a400060032001000200010079800304180001b
:1029b400dc4c02000000000000000000d21a0700f6
:1029c4001e0090000080fa00000006000200fa00d9
:1029d40071418000010f78001e0078000080fa0029
:1029e400000006000400fa000000eb00000f78006d
:1029f40071418000110798001e0090000080fa00c9
:102a0400000006000000fa00604180000080fa0027
:102a1400000006000400fa00100798001e00900051
:102a24000000e00002003a0030418000010037005d
:102a34001e009000000f78009e0078007a8040000d
:102a44000080fa00000006000400fa001007980055
:102a540018ff07009f1a0700a14180001e00900084
:102a640000804000a0418800a71a070017ff070054
:102a7400000f78001e0078000080fa0000000600b5
:102a84001000fa000000eb00000f78000042800004
:102a94000000e000c0003a00704180000000e8003f
:102aa400100798009e009000714188001e0090005d
:102ab4000000e0000a003a0041418000210798002c
:102ac4005041800040418800ae0090005141880090
:102ad400c04180000000e800c0418800e002070017
:102ae400e04180009e009000808f500099003900e2
:102af4000100370000000000404180001000780011
:102b04000000e00003003a000080eb00e041880090
:102b14009000370040418000300090003000900069
:102b2400300798003e009000900090004107980004
:102b34009e0090004e009000808f500003003100f2
:102b4400ce009000e1418800820037003e009000f2
:102b5400d0009000510798003e00900020009000a3
:102b6400be009000b1009000210098003e0090004b
:102b740030009000be009000a10090001100980069
:102b84005e009000900090003e0090000080e800fd
:102b9400808f500004003a003e009000b000900086
:102ba4005e009000110098003e0090008000eb0051
:102bb400510098005e009000100078008000e90049
:102bc4005e009000010878003e009000200890000c
:102bd4000000e0001f0032003e009000a0089000ba
:102be400610798003e00900070009000be009000c5
:102bf40081089000210098003e0090000008900099
:102c0400be009000f1009000110098006e0090004a
:102c1400900090003e0090006c004000808f5000b7
:102c240004003a003e009000800890006e0090007e
:102c3400110098003e0090008000eb0021089800ed
:102c44006e009000100078008000e9006e00900093
:102c5400010878003e009000b00890008041800098
:102c6400808f5000030036003e0090003008900032
:102c7400804188003e009000300890006a00b9004e
:102c840080007800e0c521000080400090009000a2
:102c9400710798003e009000fe009000210098000b
:102ca4007e009000a00090003e009000310098004b
:102cb4007e00900020009000be0090008180e8001b
:102cc400110098003e0090008080e8007e00900093
:102cd400210098003e009000300890006a00b9007e
:102ce40080007800e0c52100808040003e00900014
:102cf400510098003e009000300890006a00b9002e
:102d040080007800e0c52100008140003e00900072
:102d1400300890006a00b90080007800e0c5210006
:102d240000804000100078000000e80000097800ee
:102d34003e009000b00890003041800030089000c0
:102d4400808f50006bff360010002000000f7800c9
:102d540069ff370030418000300890006a00b900f4
:102d640080007800e0c52100008040001000780059
:102d7400e10f50000200360010002000000f780020
:102d8400b04180000000e000060032001000200086
:102d9400000f780003003700a04180000000e80025
:102da400a04188001e0078000080fa0000000600a0
:102db4000800fa00004280000000e0000300320036
:102dc40010002000b0418800410037003628ef0091
:102dd4003041800070089000100798001e00900099
:102de4007400500010079800304180009000780073
:102df4003041800070089000808f50000600310040
:102e04004201200091c228001e00900044f70700f0
:102e14000000e00006003200304180007a004000eb
:102e24002007980030418000ae009000b20d0700ea
:102e340081418000010f7800010037001e0fe90076
:102e44001e0078006a00b90080007800e0c5210007
:102e540000804000100078000000e000f7ff32001e
:102e64001e0078006a00b90080007800e0c52100e7
:102e740000804000300798003e0090001000900051
:102e8400900090003e009000110098003e009000d9
:102e9400900090003e00900064004000808f50003d
:102ea40004003a003e009000b00090003e00900004
:102eb400110098003e009000100090003000900037
:102ec400304188009e0078008141880030418000b4
:102ed4000080fa00000006000400fa00000f7800e9
:102ee40011079800304180006c0040008000780099
:102ef4001e007800d0190700110020001e00900069
:102f0400fe0607000080fa00000006000800fa0030
:102f1400100798002107980032079800304180007c
:102f2400ae00900001f0a000610098001e00900027
:102f340090009000010f7800304180009e007800de
:102f440071009800304180009e007800a10090003c
:102f5400010898001e007800200090003141800094
:102f6400ec8040001100980030418000ec004000eb
:102f74001e00780021009800304180009e009000df
:102f8400210898001e009000100078008000e800de
:102f94001e00900001087800110020003e009000ff
:102fa400d60607000080fa00000006000e00fa00b2
:102fb400600798006e009000300090003000900090
:102fc400100798001e009000a008900021079800a8
:102fd4001e009000700090009e00900081089000f8
:102fe400210098001e009000000890009e009000b0
:102ff400f1009000110098002e00900090009000c5
:103004001e0090006c004000808f500004003a00c5
:103014001e009000800890002e009000110098007f
:103024001e0090008000eb00210898002e00900004
:10303400100078008000e9002e009000010878005c
:10304400004280000000e00057003a001e0090009b
:10305400d0009000310798001e00900020009000de
:103064009e009000b1009000210098001e00900086
:10307400300090009e009000a10090001100980084
:103084003e009000900090001e0090000080e80038
:10309400808f500004003a001e009000b0009000a1
:1030a4003e009000110098001e0090008000eb008c
:1030b400510098003e009000100078008000e90064
:1030c4003e009000010878001e009000b0089000b7
:1030d40080418000808f5000030036001e00900065
:1030e40030089000804188001e0090003008900055
:1030f4006a00b90080007800e0c52100008040002b
:1031040090009000410798001e009000ce009000af
:10311400210098004e009000a00090001e00900036
:10312400310098004e009000200090009e00900016
:103134008180e800110098001e0090008080e80063
:103144004e009000210098001e009000300890006e
:103154006a00b90080007800e0c52100808040004a
:103164001e009000510098001e009000300890004e
:103174006a00b90080007800e0c5210000814000a9
:103184001e009000300890006a00b90080007800aa
:10319400e0c5210000804000100078000000e80035
:1031a4000009780018003700e1e480005107980016
:1031b4001e009000de009000710098005e009000f8
:1031c400a00090001e009000010898005e0090008e
:1031d400200090009e009000ec80400011009800b8
:1031e4001e009000ec0040005e009000210098005a
:1031f4001e009000a1c9210021089800d0e480009d
:103204000000e800d0e488001e009000b0089000a0
:103214003041800030089000808f50000500360057
:1032240010002000000f780010002000b04188003a
:10323400020037000000eb00000f78001e00780049
:103244000080fa00000006000c00fa004007980015
:10325400510798005e0090008000780001f0a00003
:103264004e009000010878004e009000300090005d
:10327400000f78004e009000c000900011079800e5
:103284004e00900010009000ce009000a10090002d
:10329400210098004e00900020009000ce00900085
:1032a40091009000110098001e0090009000900082
:1032b4004e009000808f500004003a004e009000b1
:1032c400a00090001e009000110098004e00900095
:1032d4008000eb00410098001e0090001000780070
:1032e4008000e9001e009000010878001e007800ac
:1032f400d0009000210798001e0078002000900064
:103304009e007800b1009000210098001e00780013
:10331400300090009e007800a100900011009800f9
:103324002e009000900090001e80e800808f5000d6
:1033340004003a001e007800b00090002e009000b7
:10334400110098001e0078008000eb0051009800e6
:103354002e009000100078008000e9002e009000fc
:10336400010878001e007800b008900080418000b9
:10337400808f5000030036001e0078003008900053
:10338400804188001e007800300890006a00b9006f
:1033940080007800e0c5210000804000900090008b
:1033a400310798001e007800be00900021009800ac
:1033b4003e009000a00090001e00780031009800ac
:1033c4003e009000200090009e80e80011009800cc
:1033d4009e80e8003e009000210098001e007800c6
:1033e400300890006a00b90080007800e0c5210030
:1033f400808040001e007800510098001e00780074
:10340400300890006a00b90080007800e0c521000f
:10341400008140001e007800300890006a00b90066
:1034240080007800e0c52100008040001000780092
:103434000000e800000978001e007800b008900041
:103444003041800030089000808f50000200360028
:1034540010002000b04188000080fa00000006003f
:103464000200fa00000f78001a180700c14180001a
:103474001e00780001087800714180001e00780069
:1034840011009800201807000080fa0000000600d0
:103494000200fa00000f7800c14180001e0078008d
:1034a40001087800714180001e0078001100980026
:1034b4000080fa00000006000a00fa0030079800b5
:1034c4004107980003180700714180001107980014
:1034d4003e009000100090009e009000008050007c
:1034e400200798004e00900010007800e10f400083
:1034f40003003a000000eb00000f780025003700bd
:103504003e00900090007800c0418000808f500001
:103514000b0032003e009000900090001e009000ce
:10352400808f500006003e0010002000000f78003d
:103534004e0090008000eb00010878001500370071
:103544004e009000900078002e009000808f500074
:103554000b0036004e009000900078002e00900082
:10356400808050004e009000010878003e009000da
:10357400c7ff07000000eb00000f780005003700cc
:103584004e0090008000eb0001087800100020003d
:10359400000f7800dc1707001e0078000080fa0096
:1035a400000006000000fa0010002000b04188006e
:1035b4000080fa00000006000200fa00000f780004
:1035c40024000700f0e28000e10f50000300360001
:1035d400dc4c02000000000000000000c30b0700e8
:1035e400f7ff37000200fa000000eb00000f78003c
:1035f400070037001e0078006a00b90080007800d8
:10360400e0c5210000804000cd1707001e0fe80030
:103614001e007800e30f5000f6ff360060c821005a
:10362400c717070000c92100c5170700a0c921005a
:10363400c317070040ca2100c117070060c8210052
:103644004041880000c92100504188000080fa00f0
:10365400000006000000fa000080fa0000000600e6
:103664000000fa0040418000100078000000e000f3
:1036740003003a000080eb00e041880004003700ba
:10368400404180003000900010007800e041880044
:103694000080fa00000006000200fa0031418000b8
:1036a400010f78001e0078000080fa000000060078
:1036b4000400fa00100798000000eb00000f7800e7
:1036c4001e0090000000e00002003a00314180003a
:1036d400010f78001e0078000080fa000000060048
:1036e4000800fa0030079800be0090001107980007
:1036f4000000eb00000f78003e0090000000e000a6
:10370400670032001e009000b00890003041800035
:1037140030089000808f5000590031001e00900046
:10372400600090000000e00005003500304180009a
:1037340030089000e40010001e0090006100980022
:103744001e009000500190001e0090003008900070
:103754006a00b90080007800e0c5210000804000c4
:10376400800f51003f003a001e0090000080e800e6
:10377400e317070030418000b00890001e0090005d
:10378400310898001e009000b0089000804180002d
:10379400808f5000030036001e0090003008900017
:1037a400804188001e009000300890006a00b90033
:1037b40080007800e0c52100008040009000900067
:1037c400210798001e009000ae0090002100980090
:1037d4002e009000a00090001e0090003100980080
:1037e4002e009000200090009e0090008180e80050
:1037f400110098001e0090008080e8002e009000c8
:10380400210098001e009000300890006a00b90062
:1038140080007800e0c52100808040001e009000f8
:10382400510098001e009000300890006a00b90012
:1038340080007800e0c52100008140001e00900057
:10384400300890006a00b90080007800e0c52100cb
:1038540000804000100078000000e80000097800b3
:103864000400370030418000b00890001e00900032
:103874003108980010002000000f7800080037007d
:103884001e009000801090003041800030089000ad
:10389400808f50000200310010002000000f7800db
:1038a4001e0078000080fa00000006000800fa00fc
:1038b40030079800be009000110798000000eb004c
:1038c400000f78003e0090000000e0005400320039
:1038d4001e009000101090008000e9001e0090006f
:1038e400111098001e009000b00890001e00900077
:1038f40000109000808f5000490032001e0090009c
:10390400101090000000e00045003a001e009000f6
:103914000080e8007a1707001e00900080109000d5
:103924001e009000310898001e009000300890009e
:10393400e40010001e009000610098001e0090003a
:10394400b008900080418000808f50000300360052
:103954001e00900030089000804188001e009000f6
:10396400300890006a00b90080007800e0c52100aa
:103974000080400090009000210798001e009000f5
:10398400ae009000210098002e009000a00090004e
:103994001e009000310098002e009000200090003e
:1039a4009e0090008180e800110098001e009000a5
:1039b4008080e8002e009000210098001e009000f6
:1039c400300890006a00b90080007800e0c521004a
:1039d400808040001e009000510098001e0090005e
:1039e400300890006a00b90080007800e0c521002a
:1039f400008140001e009000300890006a00b90069
:103a040080007800e0c521000080400010007800ac
:103a14000000e8000009780010002000000f780082
:103a24001e0078000080fa00000006000e00fa0074
:103a34005007980061079800de0090001107980075
:103a440010002000200798005e0090000000e000b5
:103a5400650032001e009000801090006e009000ff
:103a6400808f5000030031006e019000020f780037
:103a7400030037001e00900080109000010f7800b2
:103a84001e009000300890009e0f50005600320037
:103a94001e009000901090002e009000808f500027
:103aa40051003a001e00900030099000320798003f
:103ab4001e0090009e007800310898001e009000bf
:103ac400600090000000e000040035004200200087
:103ad4009e0051001e009000610098001e0090009e
:103ae400500190003e0090006a00b9008000780008
:103af400e0c5210000804000800f51003a003a00e8
:103b04001e0090000080e800fd1607001e009000d3
:103b1400b008900080418000808f50000300360080
:103b24001e00900030089000804188001e00900024
:103b3400300890006a00b90080007800e0c52100d8
:103b44000080400090009000410798001e00900003
:103b54004e019000220098004e009000a0009000ba
:103b64001e009000310098004e009000200090004c
:103b74009e0090008180e800110098001e009000d3
:103b84008080e8004e009000210098001e00900004
:103b9400300890006a00b90080007800e0c5210078
:103ba400808040001e009000510098001e0090008c
:103bb400300890006a00b90080007800e0c5210058
:103bc400008140001e009000300890006a00b90097
:103bd40080007800e0c521000080400010007800db
:103be4000000e800000978000080fa0000000600e8
:103bf4000200fa0030418000e0009000010f7800dc
:103c04003041800031418000b1089000e480100010
:103c1400610098001e0078000080fa000000060091
:103c24000200fa0031418000010f78001e00780084
:103c34000000e000050032001e0078001010900023
:103c44008000e8001e007800111098001e00780023
:103c54000080fa00000006000e00fa0040079800f9
:103c640051079800620798000000eb00000f7800ed
:103c7400314180004e009000690040004200dd00a8
:103c8400008040001000be00e00f5000e08f58009c
:103c940028003a006e0090000000e0002500320089
:103ca40084fa07000b160700314180004e00900093
:103cb400690040004200dd00008040001000be00aa
:103cc400e00f5000e08f580008003a0031418000b6
:103cd4004e009000008040008002b00011c0b3008c
:103ce4000148780010002000000f78000616070035
:103cf4001e007800e10f500003003a00110020007c
:103d04006e0090007d03070070fa0700100798000a
:103d14001e007800e10f500006003a001e009000db
:103d24000000e00003003a00dc4c02000000000048
:103d340000000000e7150700314180004e009000ac
:103d4400690040004200dd00008040001001be0018
:103d540022079800330798002e009000be009000c0
:103d6400e00f5000e08f5800150032005e00900014
:103d74000000e00008003200314180004e00900055
:103d8400690040004200dd00008140006000b8008e
:103d94000089be000a003700334180002e009000e5
:103da400be00900061005000e08058004e01900079
:103db400690141004211dd00028141000089be0019
:103dc400314180004e009000008040008002b0002d
:103dd4008040eb0001487800cb1507002e009000ce
:103de400be0090000080fa00000006001400fa00f3
:103df400889fbe008a9fbe00300798004207980043
:103e0400530798006407980075079800010f9800fd
:103e1400160f98000000eb00100798003141800055
:103e24003e0090008002b00061407800e24f5000f4
:103e34003d0032001e0890000000e0003a0032000d
:103e44001cfa0700a3150700314180003e009000d2
:103e54008002b00061407800e24f50002000320040
:103e6400344180003e009000690040004200dd00c3
:103e7400000042001001be004e009000de009000e1
:103e84000080ea008180ea00820278000301780061
:103e94008001780081007800038062008100610065
:103ea40081057800000578000a00be003e019000fc
:103eb400690141004211dd00020142000089be0097
:103ec400314180003e009000008040008002b0003c
:103ed40011c0b300014878001000200010079800ba
:103ee400891507001e009000e10f500003003a00fe
:103ef400110020001e08900000030700f3f90700da
:103f0400200798001e009000e10f500006003a00c0
:103f14002e0090000000e00003003a00dc4c020098
:103f240000000000000000006a1507000e08900061
:103f34000000e00008003200314180003e009000a3
:103f4400690040004200dd00008040001000be0017
:103f54000e0990000089be00314180003e009000af
:103f64008002b00061407800e24f5000030032004c
:103f74000000eb00000f78001a0037003441800085
:103f84003e009000690040004200dd000000420055
:103f94001001be006e009000fe0090000080ea0058
:103fa4008180ea00820278000301780080017800b1
:103fb4008100780003806200810061008104780040
:103fc400000478000800be003e0190006901410031
:103fd4004211dd00020142000089be0010002000f1
:103fe400000f7800314180003e00900000804000c6
:103ff4008002b0008040eb000148780042150700c1
:104004001e0078004f05be004f04be000080fa0079
:10401400000006001600fa00500798006107980097
:1040240072079800030f9800140f9800250f98004a
:1040340010002000000f7800de00900011079800a7
:10404400241507002e0890000000e000080032004c
:104054009e0090006e009000690040004200dd0068
:10406400008040001000be002e0990000089be00b0
:104074009e0090006e0090008002b00061417800c4
:10408400424798009e0090006e009000008040001f
:104094008002b00021c0b300014878001e089000df
:1040a400e20f50001d003200e20f500005003e00f8
:1040b4000000e00040003200e10f50000600320032
:1040c4003e003700e30f500023003200e40f50009d
:1040d4002a003200390037009e0090006e009000e4
:1040e400690040004200dd00008040001001be0075
:1040f4007e0090008e0890000000710081807100a5
:104104009e0190006e019000690141004211dd00a2
:10411400028141000089be00280037009e00900003
:104124006e009000690040004200dd000080400005
:104134001000be0061004000e08048009e01900035
:104144006e019000690141004211dd0002814100cd
:104154000089be00190037009e0090006e00900098
:10416400690040004200dd00008040007e019000b4
:104174008e0990000288be00100037004e40900067
:10418400e24f5000090032009e0090006e00900043
:10419400690040004200dd00008040007e01900084
:1041a4008e0990000288be00040037000000eb0076
:1041b400000f780001003700000000004e4090001e
:1041c400e14f50005f003a001e009000d0019000c3
:1041d400330798001e009000200090009e0090007d
:1041e400b1009000210098001e0090003000900063
:1041f4009e009000a1009000110098003e009000e5
:10420400900090001e0090000080e800808f500015
:1042140004003a001e009000b00090003e009000a0
:10422400110098001e0090008000eb0051009800df
:104234003e009000100078008000e9003e009000ed
:10424400010878001e009000b008900080418000b2
:10425400808f5000030036001e009000300890004c
:10426400804188001e009000300890006a00b90068
:1042740080007800e0c5210000804000900090009c
:10428400410798001e0090004e0190002200980003
:104294004e009000a00090001e0090003100980095
:1042a4004e009000200090009e0090008180e80065
:1042b400110098001e0090008080e8004e009000dd
:1042c400210098001e009000300890006a00b90098
:1042d40080007800e0c52100808040001e0090002e
:1042e400510098001e009000300890006a00b90048
:1042f40080007800e0c52100008140001e0090008d
:10430400300890006a00b90080007800e0c5210000
:1043140000804000100078000000e80000097800e8
:1043240030418000b00890001e00900030089000da
:10433400808f500003003100dc4c020000000000bc
:1043440000000000701407001e0078000080fa00ce
:10435400000006001c00fa0070079800010f980086
:10436400120f9800230f9800340f9800450f9800ff
:10437400560f980010002000000f7800fe009000f7
:10438400110798000000eb00200798004e089000e9
:104394000000e000080032009e0090000e0890002b
:1043a400690040004200dd00008040001000be00b3
:1043b4004e0990000089be009e0090000e089000f7
:1043c4008002b00061417800624798009e0090002e
:1043d4000e089000008040008002b00021c0b300ad
:1043e400014878003e089000e20f50001d003200a2
:1043f400e20f500005003e000000e00040003200e3
:10440400e10f5000060032003e003700e30f500079
:1044140023003200e40f50002a0032003900370034
:104424009e0090000e089000690040004200dd00ec
:10443400008040001001be001e089000ae089000ed
:1044440000007100818071009e0190000e099000af
:10445400690141004211dd00028141000089be0072
:10446400280037009e0090000e089000690040006c
:104474004200dd00008040001000be0061004000ea
:10448400e08048009e0190000e09900069014100ff
:104494004211dd00028141000089be00190037008d
:1044a4009e0090000e089000690040004200dd006c
:1044b400008040001e099000ae0990000288be00f2
:1044c400100037006e409000e24f500009003200a7
:1044d4009e0090000e089000690040004200dd003c
:1044e400008040001e099000ae0990000288be00c2
:1044f400040037000000eb00000f780001003700d3
:10450400000000006e409000e14f500080003a002f
:10451400004280000000e00057003a001e009000b6
:10452400d0019000430798001e00900020009000e6
:104534009e009000b1009000210098001e009000a1
:10454400300090009e009000a1009000110098009f
:104554004e009000900090001e0090000080e80043
:10456400808f500004003a001e009000b0009000bc
:104574004e009000110098001e0090008000eb0097
:10458400510098004e009000100078008000e9006f
:104594004e009000010878001e009000b0089000c2
:1045a40080418000808f5000030036001e00900080
:1045b40030089000804188001e0090003008900070
:1045c4006a00b90080007800e0c521000080400046
:1045d40090009000510798001e0090005e0190002a
:1045e400220098005e009000a00090001e00900041
:1045f400310098005e009000200090009e00900022
:104604008180e800110098001e0090008080e8007e
:104614005e009000210098001e0090003008900079
:104624006a00b90080007800e0c521008080400065
:104634001e009000510098001e0090003008900069
:104644006a00b90080007800e0c5210000814000c4
:104654001e009000300890006a00b90080007800c5
:10466400e0c5210000804000100078000000e80050
:104674000009780018003700e3e48000630798001d
:104684001e009000ee009000710098006e009000f3
:10469400a00090001e009000010898006e00900099
:1046a400200090009e009000ec80400011009800d3
:1046b4001e009000ec0040006e0090002100980065
:1046c4001e009000a1c9210021089800d0e48000b8
:1046d4000000e800d0e488001e009000b0089000bc
:1046e4003041800030089000808f50000800360070
:1046f4005e0890000000e000030032005e089000b5
:10470400110020000108780010002000b04188004a
:104714001e0078000080fa00000006001200fa0073
:104724006007980071079800020f9800ee0090004f
:10473400010f78000000eb00100798009e0078003d
:104744007e0090008002b0006141780042479800ea
:104754009e0078007e009000008040008002b0003f
:1047640021c0b300014878009e0078007e009000cc
:10477400690040004200dd00008040001000be00df
:1047840061004000e08048009e0178007e019000b6
:10479400690141004211dd00028141000089be002f
:1047a4004e409000e14f50007d003a0000428000ee
:1047b4000000e00054003a001e007800d000900091
:1047c400310798001e007800200090009e007800b9
:1047d400b1009000210098001e0078003000900085
:1047e4009e007800a1009000110098003e00900007
:1047f400900090001e80e800808f500004003a0072
:104804001e007800b00090003e0090001100980057
:104814001e0078008000eb00510098003e009000dc
:10482400100078008000e9003e0090000108780044
:104834001e007800b008900080418000808f5000f6
:10484400030036001e007800300890008041880084
:104854001e007800300890006a00b90080007800db
:10486400e0c521000080400010019000420798003c
:104874001e007800ce009000210098004e009000a9
:10488400a00090001e007800310098004e009000b7
:10489400200090009e80e800110098009e80e800af
:1048a4004e009000210098001e007800300890000f
:1048b4006a00b90080007800e0c5210080804000d3
:1048c4001e007800510098001e0078003008900007
:1048d4006a00b90080007800e0c521000081400032
:1048e4001e007800300890006a00b900800078004b
:1048f400e0c5210000804000100078000000e800be
:104904000009780018003700e2e48000520798009c
:104914001e007800de009000710098005e00900098
:10492400a00090001e007800010898005e0090002e
:10493400200090001e017800ec0041001100980056
:104944001e017800ec0041005e00900021009800f8
:104954001e007800a1c9210021089800d0e480003d
:104964000000e800d0e488001e007800b008900041
:104974003041800030089000808f500008003600dd
:104984000e0890000000e000030032000e089000c2
:10499400110020000108780010002000b0418800b8
:1049a4000080fa00000006000800fa0020079800c2
:1049b400310798002e0090000000e00002003a0049
:1049c40030418000010037002e009000100798004d
:1049d400c01207009e0090003e0090008002b000cc
:1049e40061407800e24f500009003a009e009000b8
:1049f4003e009000008040008002b0008040eb0048
:104a04000148780010002000000f780002003700f1
:104a14000000eb00000f7800bb1207001e007800b6
:104a24000080fa00000006000e00fa00889fbe0015
:104a340030079800410798005207980063079800d0
:104a44003e0090000000e00002003a003041800087
:104a5400010037003e009000000f78009d1207000f
:104a64009e0078004e009000690040004200dd0086
:104a7400008040001001be00120798002307980030
:104a84009e0078004e009000690040004200dd0066
:104a9400008040001001be005e009000ee00900017
:104aa4000080ea008180ea000202780003017800b5
:104ab40080017800810078000300620081006100b9
:104ac40081047800000478000800be009e0178008c
:104ad4004e019000690141004211dd000281410054
:104ae4000089be00881207001e009000ae009000ee
:104af4004f04be000080fa00000006000e00fa0019
:104b0400500798006107980071418000010f7800f8
:104b1400414180001107980051418000210798000d
:104b2400304180000080e800f51207005e0090002c
:104b3400e10f40001c003a006e0090000000e0000d
:104b44001900320031e580003107980030418000bf
:104b5400be0090002100980030418000be0090000b
:104b6400a1009000310098003e00900020009000c9
:104b7400314180008180e8001100980030418000bc
:104b84008080e8003e0090002100980030418000c1
:104b940041ca21005100980020e580000000e8008f
:104ba40020e588001a0037005e0090001e004000d7
:104bb4004007980030418000ce009000110098001a
:104bc4004e0090009e0f50000600310030418000de
:104bd4000080e800800078002e0090009612070004
:104be4000b003700304180000080e800800078002e
:104bf4001e00900090120700e0418000ce0090005b
:104c0400808f500002003100ce009000e141880006
:104c14000080fa00000006000200fa002628ef00d7
:104c24002c28ef002e28ef003028ef003228ef0068
:104c34003428ef000000eb00000f78000700370075
:104c44001e00780080004000608320000080400047
:104c54008000eb00010878001e0fe8001e007800b9
:104c64000000e000f6ff34003828ef003a28ef0097
:104c74003c28ef004028ef000080fa000000060006
:104c84000800fa002007980031079800100020005f
:104c9400000f7800ae009000110798001e009000ed
:104ca4000000e0004c0032001e00900070089000ec
:104cb4000000e000480032001e00900070089000e0
:104cc4008080eb0000017800110009008280d80088
:104cd400800078001e00900000109000808f50002b
:104ce4003d003900fb1107001e0090001001780000
:104cf4001e009000f00890001e009000001090002c
:104d04000088b90000007800800041001e00900077
:104d1400210098001e0090008000eb0061089800bc
:104d24001e009000900078001e0090001100980072
:104d34001e009000100178001e0090007008900082
:104d44008000e9001e009000001090000088b90067
:104d540000007800800041001e009000310098009f
:104d64001e00900080c0eb00216098001e0090009f
:104d740080c0eb00316098003e0090000000e0002d
:104d84000d003a001e009000400090000000e0007a
:104d94000f0032001e0090006800400083f80700f6
:104da4000000e0000a003200dc4c020000000000b9
:104db40000000000060037001e009000680040005c
:104dc400df1107001e00900072004000dc11070094
:104dd400cd110700020037000000eb00000f78003f
:104de4001e0078000080fa00000006000c00fa00a3
:104df4003007980041079800224f98000000eb000c
:104e0400000f78003e0090000000e0002700320010
:104e14008080eb003e009000000178001100090042
:104e24008280d800800078004e009000808f50006f
:104e34001e003900be0090004e0090000088b900aa
:104e440080007800b0fd2f00808f500017003e00d6
:104e5400be0090004e0090000088b9000000780069
:104e6400100798001e0090004002b000481207008e
:104e7400000f78001e0078000000e0000b003200f4
:104e84009e007800210798002e0090004002b00098
:104e9400200798001e027800ae4990002e01900071
:104ea400ce0090003e009000030007001e00780032
:104eb4000080fa00000006000a00fa00000f7800e3
:104ec4001107980022079800634798004407980048
:104ed4001e0090000000e00004003a00ce009000a4
:104ee4004e0090000108780003003700ae009000e7
:104ef4004e009000010878004e0090009e0078005b
:104f0400710898004e0090009e00900001109800d7
:104f1400110020004e00900059ff07000080fa00a5
:104f2400000006000200fa00000f78001e0078005e
:104f34000000e0000e0032001e0078008000eb004c
:104f4400210098001e0078008000eb000108780022
:104f54001e0078008000eb00310098008001eb0017
:104f64000001eb008000eb001e0078001200070037
:104f74000080fa00000006000800fa00604798006c
:104f840010002000000f78000000eb0010079800cc
:104f94006e4190009e0090001e00780093ff070071
:104fa400200798002e009000deff07002e009000de
:104fb4000080fa00000006001200fa005007980072
:104fc4006107980072079800030f98000000eb0037
:104fd400000f7800de0090001107980001003700f0
:104fe400000000003b1107001e009000e008900044
:104ff4001e00900070089000808f5000030039005c
:105004000e089000e20f50001b003a000e099000b9
:10501400ee0090001e009000d902070020079800bf
:105024001e009000100890000000e000090032000b
:105034001e00900072004000dcf707000000e00052
:105044000a003200dc4c02000000000000000000f6
:10505400060037002e0090000000e000030032003c
:10506400dc4c0200000000000000000026110700d4
:10507400100020003d0037007e0090000000e0009a
:1050840003003a00201107000000eb00370037004e
:105094001e0078000000e00004003a0066004700ab
:1050a400fbf8070010002000000f7800161107001d
:1050b40080f50700071107001e0090002060900093
:1050c400e14f400003003a001e0090008040eb00d6
:1050d400216098001e00900030609000e14f400075
:1050e40003003a001e0090008040eb0031609800fd
:1050f40005110700ee00470066004700eef80700c0
:105104000000e00015003a001e009000780307003c
:105114000000e0000d003200fe0090001e00900030
:10512400680040006cf707001e0090001803070099
:1051340066f507000000e000a9ff3a00dc4c02001d
:105144000000000000000000a6ff37001e009000d1
:105154000f0307005df50700a2ff37001e00900053
:105164000b03070059f507000000eb000080fa006c
:10517400000006001400fa00600798007107980008
:10518400020f9800130f9800ee009000110798008a
:105194000000eb00200798001e009000e00890003b
:1051a4001e00900070089000808f500003003900aa
:1051b4001e089000e20f50002c003a001e009000e0
:1051c400b0609000614798001e009000e0089000d5
:1051d400410798001e099000fe0090001e009000f8
:1051e400670207006e409000e14f400010003a0053
:1051f4001e009000100890000000e000180032002b
:105204001e0090007200400068f707000000e000f4
:10521400130032000e0890000000e000100032007d
:105224000e08900011002000010878000c003700df
:10523400f4f50700500798006e4090008000fb00d2
:105244005e009000808f5000050031006e40900099
:105254000040e800804078001e0090003160980013
:1052640010002000000f7800020037000000eb005f
:10527400000f78001e0078000080fa00000006008d
:105284001000fa006007980071079800ee00900083
:10529400110798000000eb00200798001e00900002
:1052a400e0089000310798001e009000f00890007c
:1052b4003e009000808f5000290036001e009000b0
:1052c400b0609000014f98003e0090008000e8001c
:1052d4001e009000610898000e489000e14f4000c5
:1052e40010003a001e009000100890000000e0003a
:1052f400180032001e009000720040002bf70700d7
:105304000000e000130032007e0090000000e00086
:10531400100032007e009000110020000108780087
:105324000c003700b7f50700500798000e489000ae
:105334008000fb005e009000808f5000050031006b
:105344000e4890000040e800804078001e00900065
:105354003160980010002000000f78000200370030
:105364000000eb00000f78001e0078000080fa00b7
:10537400000006001000fa0050079800610798002a
:10538400720798000000eb00000f7800de00900028
:1053940011079800030037000000000001003700e7
:1053a400000000004b1007001e009000e008900071
:1053b400210798002e0090000000e0001600320043
:1053c400ee0090001e0090004f0207002e00900097
:1053d4008000e9001e009000610898001e00900003
:1053e400400090000000e000080032001e00900021
:1053f40068004000edf607000000e0000300320002
:10540400dc4c020000000000000000003e10070019
:1054140010002000410037007e0090000000e000f2
:1054240003003a00381007000000eb003b0037008f
:105434001e0078000000e00004003a006600470007
:1054440013f8070010002000000f78002e1007004a
:1054540098f407001f1007001e00900020609000c1
:10546400e14f400003003a001e0090008040eb0032
:10547400216098001e00900030609000e14f4000d1
:1054840003003a001e0090008040eb003160980059
:105494001d100700ee0047006600470006f80700ed
:1054a4000000e00015003a001e00900070020700a2
:1054b4000000e0000d003200fe0090001e0090008d
:1054c4007200400084f607001e00900030020700be
:1054d4007ef407000000e000afff3a00dc4c02005d
:1054e4000000000000000000aeff37001e00900026
:1054f4002702070075f40700aaff37001e0090007a
:105504002302070071f407001e00900058020700f0
:105514000000e000a2ff32000000eb000080fa006f
:10552400000006001200fa0070079800010f9800ae
:105534000000eb00000f7800fe00900021079800a7
:105544000000eb0010079800030037000000000083
:105554000100370000000000de0f07002e0090005d
:10556400e0089000310798003e0090000000e00041
:105574001a0032003e0090008000e9002e009000e6
:10558400610898002e009000100078000000e000f0
:1055940003003a00a2f90700ae009000a0009800b2
:1055a4002e009000400090000000e000080032004f
:1055b4002e009000680040007cf607000000e00028
:1055c40003003200dc4c0200000000000000000078
:1055d400cd0f070010002000570037000e08900080
:1055e4000000e00003003a00c70f07000000eb00d2
:1055f400510037001e0078000000e00004003a006b
:105604006a004700a2f7070010002000000f78008e
:10561400bd0f070027f40700ae0f07002e0090000f
:1056240020609000e14f400003003a002e009000fb
:105634008040eb00216098002e00900030609000c4
